:020000040000fa
:080000000002040000000000f2
:020000040000fa
:040008007e03000073
:020000040000fa
:04000c007e0300006f
:020000040000fa
:040010007e0300006b
:020000040000fa
:040014007e03000067
:020000040000fa
:040018007e03000063
:020000040000fa
:04001c007e0300005f
:020000040000fa
:040020007e0300005b
:020000040000fa
:040024007e03000057
:020000040000fa
:04002800bc02000016
:020000040000fa
:04002c007e0300004f
:020000040000fa
:040030007e0300004b
:020000040000fa
:040034007e03000047
:020000040000fa
:040038007e03000043
:020000040000fa
:04003c007e0300003f
:020000040000fa
:040040007e0300003b
:020000040000fa
:040044007e03000037
:020000040000fa
:040048007e03000033
:020000040000fa
:04004c007e0300002f
:020000040000fa
:040050007e0300002b
:020000040000fa
:040054007e03000027
:020000040000fa
:040058007e03000023
:020000040000fa
:04005c007e0300001f
:020000040000fa
:040060007e0300001b
:020000040000fa
:040064007e03000017
:020000040000fa
:04006800f80200009a
:020000040000fa
:04006c007e0300000f
:020000040000fa
:040070007e0300000b
:020000040000fa
:040074007e03000007
:020000040000fa
:040078007e03000003
:020000040000fa
:04007c007e030000ff
:020000040000fa
:040080007e030000fb
:020000040000fa
:040084007e030000f7
:020000040000fa
:040088007e030000f3
:020000040000fa
:04008c007e030000ef
:020000040000fa
:040090007e030000eb
:020000040000fa
:040094007e030000e7
:020000040000fa
:040098007e030000e3
:020000040000fa
:04009c007e030000df
:020000040000fa
:0400a0007e030000db
:020000040000fa
:0400a4007e030000d7
:020000040000fa
:0400a8007e030000d3
:020000040000fa
:0400ac007e030000cf
:020000040000fa
:0400b0007e030000cb
:020000040000fa
:0400b4007e030000c7
:020000040000fa
:0400b8007e030000c3
:020000040000fa
:0400bc007e030000bf
:020000040000fa
:0400c0007e030000bb
:020000040000fa
:0400c4007e030000b7
:020000040000fa
:0400c8007e030000b3
:020000040000fa
:0400cc007e030000af
:020000040000fa
:0400d0007e030000ab
:020000040000fa
:0400d4007e030000a7
:020000040000fa
:0400d8007e030000a3
:020000040000fa
:0400dc007e0300009f
:020000040000fa
:0400e0007e0300009b
:020000040000fa
:0400e4007e03000097
:020000040000fa
:0400e8007e03000093
:020000040000fa
:0400ec007e0300008f
:020000040000fa
:0400f0007e0300008b
:020000040000fa
:0400f4007e03000087
:020000040000fa
:0400f8007e03000083
:020000040000fa
:0400fc007e0300007f
:020000040000fa
:040100007e0300007a
:020000040000fa
:040104007e03000076
:020000040000fa
:040108007e03000072
:020000040000fa
:04010c007e0300006e
:020000040000fa
:040110007e0300006a
:020000040000fa
:040114007e03000066
:020000040000fa
:040118007e03000062
:020000040000fa
:04011c007e0300005e
:020000040000fa
:040120007e0300005a
:020000040000fa
:040124007e03000056
:020000040000fa
:040128007e03000052
:020000040000fa
:04012c007e0300004e
:020000040000fa
:040130007e0300004a
:020000040000fa
:040134007e03000046
:020000040000fa
:040138007e03000042
:020000040000fa
:04013c007e0300003e
:020000040000fa
:040140007e0300003a
:020000040000fa
:040144007e03000036
:020000040000fa
:040148007e03000032
:020000040000fa
:04014c007e0300002e
:020000040000fa
:040150007e0300002a
:020000040000fa
:040208007e03000071
:020000040000fa
:04020c007e0300006d
:020000040000fa
:040210007e03000069
:020000040000fa
:040214007e03000065
:020000040000fa
:040218007e03000061
:020000040000fa
:04021c007e0300005d
:020000040000fa
:040220007e03000059
:020000040000fa
:040224007e03000055
:020000040000fa
:04022800bc02000014
:020000040000fa
:04022c007e0300004d
:020000040000fa
:040230007e03000049
:020000040000fa
:040234007e03000045
:020000040000fa
:040238007e03000041
:020000040000fa
:04023c007e0300003d
:020000040000fa
:040240007e03000039
:020000040000fa
:040244007e03000035
:020000040000fa
:040248007e03000031
:020000040000fa
:04024c007e0300002d
:020000040000fa
:040250007e03000029
:020000040000fa
:040254007e03000025
:020000040000fa
:040258007e03000021
:020000040000fa
:04025c007e0300001d
:020000040000fa
:040260007e03000019
:020000040000fa
:040264007e03000015
:020000040000fa
:04026800f802000098
:020000040000fa
:04026c007e0300000d
:020000040000fa
:040270007e03000009
:020000040000fa
:040274007e03000005
:020000040000fa
:040278007e03000001
:020000040000fa
:04027c007e030000fd
:020000040000fa
:040280007e030000f9
:020000040000fa
:040284007e030000f5
:020000040000fa
:040288007e030000f1
:020000040000fa
:04028c007e030000ed
:020000040000fa
:040290007e030000e9
:020000040000fa
:040294007e030000e5
:020000040000fa
:040298007e030000e1
:020000040000fa
:04029c007e030000dd
:020000040000fa
:0402a0007e030000d9
:020000040000fa
:0402a4007e030000d5
:020000040000fa
:0402a8007e030000d1
:020000040000fa
:0402ac007e030000cd
:020000040000fa
:0402b0007e030000c9
:020000040000fa
:0402b4007e030000c5
:020000040000fa
:0402b8007e030000c1
:020000040000fa
:0402bc007e030000bd
:020000040000fa
:0402c0007e030000b9
:020000040000fa
:0402c4007e030000b5
:020000040000fa
:0402c8007e030000b1
:020000040000fa
:0402cc007e030000ad
:020000040000fa
:0402d0007e030000a9
:020000040000fa
:0402d4007e030000a5
:020000040000fa
:0402d8007e030000a1
:020000040000fa
:0402dc007e0300009d
:020000040000fa
:0402e0007e03000099
:020000040000fa
:0402e4007e03000095
:020000040000fa
:0402e8007e03000091
:020000040000fa
:0402ec007e0300008d
:020000040000fa
:0402f0007e03000089
:020000040000fa
:0402f4007e03000085
:020000040000fa
:0402f8007e03000081
:020000040000fa
:0402fc007e0300007d
:020000040000fa
:040300007e03000078
:020000040000fa
:040304007e03000074
:020000040000fa
:040308007e03000070
:020000040000fa
:04030c007e0300006c
:020000040000fa
:040310007e03000068
:020000040000fa
:040314007e03000064
:020000040000fa
:040318007e03000060
:020000040000fa
:04031c007e0300005c
:020000040000fa
:040320007e03000058
:020000040000fa
:040324007e03000054
:020000040000fa
:040328007e03000050
:020000040000fa
:04032c007e0300004c
:020000040000fa
:040330007e03000048
:020000040000fa
:040334007e03000044
:020000040000fa
:040338007e03000040
:020000040000fa
:04033c007e0300003c
:020000040000fa
:040340007e03000038
:020000040000fa
:040344007e03000034
:020000040000fa
:040348007e03000030
:020000040000fa
:04034c007e0300002c
:020000040000fa
:040350007e03000028
:020000040000fa
:100400008f8020000eff20000e01880000000000f9
:10041000000020000000e000020032000001200087
:10042000200288000e000700a047200001002000e5
:10043000810f70000100320014000700000020004e
:100440000000e00002003200000002000000000096
:1004500054040200000000000040da000000fe002a
:100460004440a900600120000000e00003003200c9
:1004700000002000a00188004440a8000000060001
:100480008a1f78008b1f7800000006009101880009
:10049000800478000000eb001a003700e28444007a
:1004a00032a0b4009905ba00e284440032a0b4003e
:1004b0009906ba00e284440032a0b4000006eb00c2
:1004c000476fde00fd07b200636ce10003003a00f5
:1004d000ebff07000000eb000a003700606ce10052
:1004e00004003a00005deb008b05e900fdff3e00d3
:1004f000040037006168e100010032000086eb0073
:100500000b00070019c7ba001905ba000e04e00075
:1005100003003a000a00e000e0ff3a000000060095
:10052000fe07b2009e0188008a047800f5ff3700bc
:10053000395dba008b05e9000c003200295dba0074
:100540008b05e900080032000c00e00003003a00cf
:10055000e284440032a0b400f5ff370019ddba0090
:100560008b05e900faff3a008904e800e1844400c1
:1005700032a0b40000000600809fbe003400f800e6
:1005800000002000a00188000000fa003040800038
:100590000000e8003040880031408000401f20000b
:1005a000808f500001003a00ca42a800314080000c
:1005b000803e2000808f500001003a00ca62a800ef
:1005c00031408000c05d2000808f500003003a0061
:1005d000ca42a900ca62a9000628ef008400a90047
:1005e0000080fa003400f9004f00be000040060011
:1005f000809fbe000200fa0040108000640060008e
:100600000000e00009003a004110800000022000d4
:10061000008060000000e00004003a00001080004c
:10062000004f78000408a800300037004010800018
:10063000640060000000e00017003a0041108000f4
:1006400000022000008060000000e0001200320084
:1006500004c8bf00614060000004e00004003200f4
:100660000408a9000428a8000782a8001f0037007a
:1006700004c8bf00624060000004e0001a003200bd
:1006800000108000004088000408a9000428a90088
:100690000782a80015003700401080006400600049
:1006a0000000e00011003200411080000002200034
:1006b000008060000000e0000c003a0000108000a4
:1006c000004f780010408000101088000782a800ba
:1006d0000000000040108000610060000000e000a9
:1006e000fcff3a0001003700000000008600a9006e
:1006f0000080fa004f00be00004006000040da0013
:100700000000fe00020037000204e0000b0032008f
:10071000810178000002780030417800b14f51002b
:10072000f9ff32001000200014427800934f52006d
:10073000030031000080eb00000006000000eb0029
:0407400000000600af
:020000040000fa
:10074400666f0000727700006172000064000000b0
:1007540062610000636b0000776100007264000056
:0c07640000730000746f000070000000c3
:020000040000fa
:100770000800fa002007980031079800c982a900f4
:10078000c9c2a900cb82a900cbc2a90020002000c9
:10079000000e8800c221ef00e0ff2700200e880035
:1007a000b0032000600e8800ae00900040062000dc
:1007b0000088b900000078008000d100b047210017
:1007c0000008b8000100d100000f7800200e800062
:1007d000c200de00b04721000008b8008100d1004f
:1007e0001e0078000088b90000007800100798000b
:1007f000213a28003e009000c2ff07000000e00000
:1008000006003a0000012000400e88009e00900083
:10081000b10e8800cb82a90018003700a13a280049
:100820003e009000b7ff07000000e00006003a001d
:1008300000022000400e88009e009000c10e88003b
:10084000cbc2a9000d003700313b28003e009000cc
:10085000acff07000000e00007003a0000032000a2
:10086000400e88009e009000b10e88009e0090000f
:10087000c10e880001003700c821ef00c1e1a800c7
:100880000080fa00000006000000fa008200a900c3
:100890009400a800200580007000b30020058800a7
:1008a0000080fa00000006000000fa00c842a9001b
:1008b000c862a900c9a2a900cba2a800f2ff070044
:1008c00001000700ffff37000000fa0000042900c4
:1008d0003010880000052000501088008620ef00ae
:1008e0000408a9000428a9009600a8000080fa00c6
:0408f00000000600fe
:020000040000fa
:1008f40006080000020000000000000000080000dc
:0c090400060000000000000000000000e1
:020000040000fa
:0200000401f009
:04000000ffff0000fe
:020000040000fa
:0200000401f009
:04000800ffff0000f6
:020000040000fa
:0200000401f009
:04000c0000000000f0
:020000040000fa
:0200000401f009
:04001000a300000049
:020000040000fa
:0200000401f009
:04001400df00000009
:020000040000fa
:0200000401f009
:04001800f7000000ed
:020000040000fa
:0200000401f009
:04001c00deff000003
:00000001FF
