:020000040000fa
:080000000002040000000000f2
:020000040000fa
:0400080028030000c9
:020000040000fa
:04000c0028030000c5
:020000040000fa
:0400100028030000c1
:020000040000fa
:0400140028030000bd
:020000040000fa
:0400180028030000b9
:020000040000fa
:04001c0028030000b5
:020000040000fa
:0400200028030000b1
:020000040000fa
:0400240028030000ad
:020000040000fa
:04002800bc02000016
:020000040000fa
:04002c0028030000a5
:020000040000fa
:0400300028030000a1
:020000040000fa
:04003400280300009d
:020000040000fa
:040038002803000099
:020000040000fa
:04003c002803000095
:020000040000fa
:040040002803000091
:020000040000fa
:04004400280300008d
:020000040000fa
:040048002803000089
:020000040000fa
:04004c002803000085
:020000040000fa
:040050002803000081
:020000040000fa
:04005400280300007d
:020000040000fa
:040058002803000079
:020000040000fa
:04005c002803000075
:020000040000fa
:040060002803000071
:020000040000fa
:04006400280300006d
:020000040000fa
:040068002803000069
:020000040000fa
:04006c002803000065
:020000040000fa
:040070002803000061
:020000040000fa
:04007400280300005d
:020000040000fa
:04007800f80200008a
:020000040000fa
:04007c002803000055
:020000040000fa
:040080002803000051
:020000040000fa
:04008400280300004d
:020000040000fa
:040088002803000049
:020000040000fa
:04008c002803000045
:020000040000fa
:040090002803000041
:020000040000fa
:04009400280300003d
:020000040000fa
:040098002803000039
:020000040000fa
:04009c00100300004d
:020000040000fa
:0400a0002803000031
:020000040000fa
:0400a400280300002d
:020000040000fa
:0400a8002803000029
:020000040000fa
:0400ac002803000025
:020000040000fa
:0400b0002803000021
:020000040000fa
:0400b400280300001d
:020000040000fa
:0400b8002803000019
:020000040000fa
:0400bc002803000015
:020000040000fa
:0400c0002803000011
:020000040000fa
:0400c400280300000d
:020000040000fa
:0400c8002803000009
:020000040000fa
:0400cc002803000005
:020000040000fa
:0400d0002803000001
:020000040000fa
:0400d40028030000fd
:020000040000fa
:0400d80028030000f9
:020000040000fa
:0400dc0028030000f5
:020000040000fa
:0400e00028030000f1
:020000040000fa
:0400e40028030000ed
:020000040000fa
:0400e80028030000e9
:020000040000fa
:0400ec0028030000e5
:020000040000fa
:0400f00028030000e1
:020000040000fa
:0400f40028030000dd
:020000040000fa
:0400f80028030000d9
:020000040000fa
:0400fc0028030000d5
:020000040000fa
:0401000028030000d0
:020000040000fa
:0401040028030000cc
:020000040000fa
:0401080028030000c8
:020000040000fa
:04010c0028030000c4
:020000040000fa
:0401100028030000c0
:020000040000fa
:0401140028030000bc
:020000040000fa
:0401180028030000b8
:020000040000fa
:04011c0028030000b4
:020000040000fa
:0401200028030000b0
:020000040000fa
:0401240028030000ac
:020000040000fa
:0401280028030000a8
:020000040000fa
:04012c0028030000a4
:020000040000fa
:0401300028030000a0
:020000040000fa
:04013400280300009c
:020000040000fa
:040138002803000098
:020000040000fa
:04013c002803000094
:020000040000fa
:040140002803000090
:020000040000fa
:04014400280300008c
:020000040000fa
:040148002803000088
:020000040000fa
:04014c002803000084
:020000040000fa
:040150002803000080
:020000040000fa
:0402080028030000c7
:020000040000fa
:04020c0028030000c3
:020000040000fa
:0402100028030000bf
:020000040000fa
:0402140028030000bb
:020000040000fa
:0402180028030000b7
:020000040000fa
:04021c0028030000b3
:020000040000fa
:0402200028030000af
:020000040000fa
:0402240028030000ab
:020000040000fa
:04022800bc02000014
:020000040000fa
:04022c0028030000a3
:020000040000fa
:04023000280300009f
:020000040000fa
:04023400280300009b
:020000040000fa
:040238002803000097
:020000040000fa
:04023c002803000093
:020000040000fa
:04024000280300008f
:020000040000fa
:04024400280300008b
:020000040000fa
:040248002803000087
:020000040000fa
:04024c002803000083
:020000040000fa
:04025000280300007f
:020000040000fa
:04025400280300007b
:020000040000fa
:040258002803000077
:020000040000fa
:04025c002803000073
:020000040000fa
:04026000280300006f
:020000040000fa
:04026400280300006b
:020000040000fa
:040268002803000067
:020000040000fa
:04026c002803000063
:020000040000fa
:04027000280300005f
:020000040000fa
:04027400280300005b
:020000040000fa
:04027800f802000088
:020000040000fa
:04027c002803000053
:020000040000fa
:04028000280300004f
:020000040000fa
:04028400280300004b
:020000040000fa
:040288002803000047
:020000040000fa
:04028c002803000043
:020000040000fa
:04029000280300003f
:020000040000fa
:04029400280300003b
:020000040000fa
:040298002803000037
:020000040000fa
:04029c00100300004b
:020000040000fa
:0402a000280300002f
:020000040000fa
:0402a400280300002b
:020000040000fa
:0402a8002803000027
:020000040000fa
:0402ac002803000023
:020000040000fa
:0402b000280300001f
:020000040000fa
:0402b400280300001b
:020000040000fa
:0402b8002803000017
:020000040000fa
:0402bc002803000013
:020000040000fa
:0402c000280300000f
:020000040000fa
:0402c400280300000b
:020000040000fa
:0402c8002803000007
:020000040000fa
:0402cc002803000003
:020000040000fa
:0402d00028030000ff
:020000040000fa
:0402d40028030000fb
:020000040000fa
:0402d80028030000f7
:020000040000fa
:0402dc0028030000f3
:020000040000fa
:0402e00028030000ef
:020000040000fa
:0402e40028030000eb
:020000040000fa
:0402e80028030000e7
:020000040000fa
:0402ec0028030000e3
:020000040000fa
:0402f00028030000df
:020000040000fa
:0402f40028030000db
:020000040000fa
:0402f80028030000d7
:020000040000fa
:0402fc0028030000d3
:020000040000fa
:0403000028030000ce
:020000040000fa
:0403040028030000ca
:020000040000fa
:0403080028030000c6
:020000040000fa
:04030c0028030000c2
:020000040000fa
:0403100028030000be
:020000040000fa
:0403140028030000ba
:020000040000fa
:0403180028030000b6
:020000040000fa
:04031c0028030000b2
:020000040000fa
:0403200028030000ae
:020000040000fa
:0403240028030000aa
:020000040000fa
:0403280028030000a6
:020000040000fa
:04032c0028030000a2
:020000040000fa
:04033000280300009e
:020000040000fa
:04033400280300009a
:020000040000fa
:040338002803000096
:020000040000fa
:04033c002803000092
:020000040000fa
:04034000280300008e
:020000040000fa
:04034400280300008a
:020000040000fa
:040348002803000086
:020000040000fa
:04034c002803000082
:020000040000fa
:04035000280300007e
:020000040000fa
:100400004f8020000eff20000e0188000000000039
:10041000000020000000e000020032000001200087
:10042000200288000e000700c065200001002000a7
:10043000810f70000100320014000700000020004e
:100440000000e00002003200000002000000000096
:1004500028060200000000000040da000000fe0054
:100460004440a900600120000000e00003003200c9
:1004700000002000a00188004440a8000000060001
:100480008a1f78008b1f7800000006009101880009
:10049000800478000000eb001a003700e28444007a
:1004a00032a0b4009905ba00e284440032a0b4003e
:1004b0009906ba00e284440032a0b4000006eb00c2
:1004c000476fde00fd07b200636ce10003003a00f5
:1004d000ebff07000000eb000a003700606ce10052
:1004e00004003a00005deb008b05e900fdff3e00d3
:1004f000040037006168e100010032000086eb0073
:100500000b00070019c7ba001905ba000e04e00075
:1005100003003a000a00e000e0ff3a000000060095
:10052000fe07b2009e0188008a047800f5ff3700bc
:10053000395dba008b05e9000c003200295dba0074
:100540008b05e900080032000c00e00003003a00cf
:10055000e284440032a0b400f5ff370019ddba0090
:100560008b05e900faff3a008904e800e1844400c1
:1005700032a0b40000000600809fbe003400f800e6
:1005800000002000a00188000000fa000040800068
:100590000000e8000040880001408000401f20006b
:1005a000808f500001003a00ca42a800014080003c
:1005b000803e2000808f500001003a00ca62a800ef
:1005c00001408000c05d2000808f500003003a0091
:1005d000ca42a900ca62a9000028ef008400a9004d
:1005e0000080fa003400f9004f00be000040060011
:1005f000801f78003400f80000002000a00188006f
:100600000000fa0010002000104088008680a90039
:100610000080fa003400f9004f0078000040060026
:10062000801f78003400f80000002000a00188003e
:100630000000fa00200020001040880087a0a900d8
:100640000080fa003400f9004f00780000400600f6
:100650000040da000000fe00020037000204e00063
:100660000b003200810178000002780030417800f0
:10067000b14f5100f9ff3200100020001442780001
:10068000934f5200030031000080eb000000060091
:080690000000eb000000060071
:020000040000fa
:10069800666f00007277000061720000640000005d
:1006a80062610000636b0000776100007264000003
:0c06b80000730000746f00007000000070
:020000040000fa
:1006c4000000fa00700120002010880007e2a90051
:1006d4000722a8000742a9000782a80007e2a80091
:1006e4009620a9008620a9000080fa0000000600d8
:1006f4000000fa0006a2a9000682a800000000007b
:1007040030108000700060000000e000fcff3a0040
:100714000080fa00000006000000fa0006a2a8000b
:100724000682a80000000000301080007000600005
:100734000000e000fcff3a000080fa000000060020
:100744000000fa000662a9000642a80000000000aa
:1007540030108000640060000000e000fcff3a00fc
:100764000080fa00000006000000fa0006a2a900ba
:100774000602a80000000000301080006100600044
:100784000000e000fcff3a000080fa0000000600d0
:100794000000fa000622a8000000000030108000cb
:1007a400620060000000e000fcff3a0006a2a9001d
:1007b4000802a9000080fa00000006000000fa0008
:1007c400000000004110800000002800008060004c
:1007d4000000e000fbff3a000080fa000000060081
:1007e4000000fa0000000000411080000000240016
:1007f400008060000000e000fbff3a000080fa0087
:10080400000006000200fa00004f78001e80fb0082
:10081400101088000000000040108000610060009b
:100824000000e000fcff3a000080fa00000006002f
:100834000000fa000662a8000000000000000000aa
:1008440040108000620060000000e000fcff320005
:100854000080fa00000006000400fa00004f78004f
:10086400114798002247980033479800beff0700bd
:100874001e00fb000000400000407800e1ff07007c
:10088400d7ff07001e409000deff0700d4ff0700db
:100894002e409000dbff0700d1ff07003e40900090
:1008a400d8ff0700ceff0700a5ff07000080fa006d
:1008b400000006000600fa0020479800314798001f
:1008c40042479800a8ff07002e4090000000fb005c
:1008d4000000400000407800caff0700c0ff070086
:1008e4003e409000c7ff0700bdff07004e40900048
:1008f400c4ff0700baff0700a5ff07002e409000c1
:100904000000fb0000004000004078000004a0004c
:10091400bcff0700b2ff0700c5ff07007eff07000a
:1009240087ff070000108000004f78001e40780009
:100934000080fa00000006000a00fa002047980030
:1009440031479800424798003307980044079800bd
:1009540085ff07002e4090000000fb0000004000cf
:1009640000407800a7ff07009dff07003e4090006d
:10097400a4ff07009aff07004e409000a1ff070064
:1009840097ff07000000eb00000f78000700370016
:100994001e007800be0090000080400010407800e7
:1009a40098ff07008eff07001e0fe8004e0090001e
:1009b4009e007800808f5000f5ff350060ff07002f
:1009c4000080fa00000006000a00fa0020479800a0
:1009d400314798004247980033079800440798002d
:1009e40061ff07002e4090000000fb000000400063
:1009f4000040780083ff070079ff07003e40900025
:100a040080ff070076ff07004e4090007dff07003f
:100a140073ff07005eff07002e4090000000fb00fc
:100a240000004000004078000004a00075ff0700ab
:100a34006bff07000000eb00000f7800090037008f
:100a44007bff07001e007800be009000008040007d
:100a540001108000814078000148780024ff0700dd
:100a64001e0fe8004e0090009e007800808f50001a
:100a7400f3ff35001e007800be00900000804000a7
:100a84008040eb000148780023ff07002cff07009b
:100a94000080fa00000006000800fa002007980011
:100aa40031079800c982a900c9c2a900cb82a90054
:100ab400cbc2a90020002000000e8800c221ef0054
:100ac400e0ff2700200e8800b0032000600e88009d
:100ad400ae009000400620000088b90000007800b5
:100ae4008000d100b04721000008b8000100d10007
:100af400000f7800200e8000c200de00b047210005
:100b04000008b8008100d1001e0078000088b900f8
:100b14000000780010079800c13428003e009000bf
:100b2400ccfe07000000e00006003a0000012000af
:100b3400400e88009e009000b10e8800cb82a90070
:100b440018003700413528003e009000c1fe070020
:100b54000000e00006003a0000022000400e880079
:100b64009e009000c10e8800cbc2a9000d00370082
:100b7400d13528003e009000b6fe07000000e000da
:100b840007003a0000032000400e88009e009000f9
:100b9400b10e88009e009000c10e8800010037004d
:100ba400c821ef00c1e1a8000080fa00000006009f
:100bb4000000fa008200a9009400a800200580002b
:100bc4007000b300200588000080fa0000000600d1
:100bd4000000fa0001348000f00f2e0080806000d5
:100be4000050200001007000003488008220a90019
:100bf4009680a8007105800080ff2f0000806000af
:100c04000000a000700588000080fa0000000600c3
:100c14000000fa001134800000fe2f000080600004
:100c24005000b300103488008240a80097a0a800a8
:100c340091058000f0f82f00008060000040a000c3
:100c4400900588000080fa00000006000000fa0009
:100c5400d7ff0700deff0700edff0700c842a90029
:100c6400c862a900c8a2a800c9a2a900cba2a80072
:100c7400010037000000000010408000e10f500028
:100c840004003a00c13428002003200082ff07003a
:100c94000228ef0010408000e20f5000f5ff3a00f8
:100ca400d1352800200320007bff07000228ef0035
:040cb400f1ff370015
:020000040000fa
:100cb8000008000004000000000000000000000020
:020000040000fa
:0200000401f009
:04000000ffff0000fe
:020000040000fa
:0200000401f009
:04000800ffff0000f6
:020000040000fa
:0200000401f009
:04000c0000000000f0
:020000040000fa
:0200000401f009
:04001000a300000049
:020000040000fa
:0200000401f009
:04001400df00000009
:020000040000fa
:0200000401f009
:04001800f7000000ed
:020000040000fa
:0200000401f009
:04001c00deff000003
:00000001FF
