:020000040000fa
:080000000002040000000000f2
:020000040000fa
:04000800740300007d
:020000040000fa
:04000c007403000079
:020000040000fa
:040010007403000075
:020000040000fa
:040014007403000071
:020000040000fa
:04001800740300006d
:020000040000fa
:04001c007403000069
:020000040000fa
:040020007403000065
:020000040000fa
:040024007403000061
:020000040000fa
:04002800d8020000fa
:020000040000fa
:04002c007403000059
:020000040000fa
:040030007403000055
:020000040000fa
:040034007403000051
:020000040000fa
:04003800740300004d
:020000040000fa
:04003c007403000049
:020000040000fa
:040040007403000045
:020000040000fa
:040044007403000041
:020000040000fa
:04004800740300003d
:020000040000fa
:04004c007403000039
:020000040000fa
:040050007403000035
:020000040000fa
:040054007403000031
:020000040000fa
:04005800740300002d
:020000040000fa
:04005c007403000029
:020000040000fa
:040060007403000025
:020000040000fa
:040064007403000021
:020000040000fa
:04006800740300001d
:020000040000fa
:04006c007403000019
:020000040000fa
:040070007403000015
:020000040000fa
:040074007403000011
:020000040000fa
:04007800140300006d
:020000040000fa
:04007c007403000009
:020000040000fa
:040080007403000005
:020000040000fa
:040084007403000001
:020000040000fa
:0400880074030000fd
:020000040000fa
:04008c0074030000f9
:020000040000fa
:0400900074030000f5
:020000040000fa
:0400940074030000f1
:020000040000fa
:0400980074030000ed
:020000040000fa
:04009c004403000019
:020000040000fa
:0400a00074030000e5
:020000040000fa
:0400a40074030000e1
:020000040000fa
:0400a80074030000dd
:020000040000fa
:0400ac0074030000d9
:020000040000fa
:0400b00074030000d5
:020000040000fa
:0400b40074030000d1
:020000040000fa
:0400b80074030000cd
:020000040000fa
:0400bc0074030000c9
:020000040000fa
:0400c00074030000c5
:020000040000fa
:0400c40074030000c1
:020000040000fa
:0400c80074030000bd
:020000040000fa
:0400cc0074030000b9
:020000040000fa
:0400d00074030000b5
:020000040000fa
:0400d40074030000b1
:020000040000fa
:0400d80074030000ad
:020000040000fa
:0400dc0074030000a9
:020000040000fa
:0400e00074030000a5
:020000040000fa
:0400e40074030000a1
:020000040000fa
:0400e800740300009d
:020000040000fa
:0400ec007403000099
:020000040000fa
:0400f0007403000095
:020000040000fa
:0400f4007403000091
:020000040000fa
:0400f800740300008d
:020000040000fa
:0400fc007403000089
:020000040000fa
:040100007403000084
:020000040000fa
:040104007403000080
:020000040000fa
:04010800740300007c
:020000040000fa
:04010c007403000078
:020000040000fa
:040110007403000074
:020000040000fa
:040114007403000070
:020000040000fa
:04011800740300006c
:020000040000fa
:04011c007403000068
:020000040000fa
:040120007403000064
:020000040000fa
:040124007403000060
:020000040000fa
:04012800740300005c
:020000040000fa
:04012c007403000058
:020000040000fa
:040130007403000054
:020000040000fa
:040134007403000050
:020000040000fa
:04013800740300004c
:020000040000fa
:04013c007403000048
:020000040000fa
:040140007403000044
:020000040000fa
:040144007403000040
:020000040000fa
:04014800740300003c
:020000040000fa
:04014c007403000038
:020000040000fa
:040150007403000034
:020000040000fa
:04020800740300007b
:020000040000fa
:04020c007403000077
:020000040000fa
:040210007403000073
:020000040000fa
:04021400740300006f
:020000040000fa
:04021800740300006b
:020000040000fa
:04021c007403000067
:020000040000fa
:040220007403000063
:020000040000fa
:04022400740300005f
:020000040000fa
:04022800d8020000f8
:020000040000fa
:04022c007403000057
:020000040000fa
:040230007403000053
:020000040000fa
:04023400740300004f
:020000040000fa
:04023800740300004b
:020000040000fa
:04023c007403000047
:020000040000fa
:040240007403000043
:020000040000fa
:04024400740300003f
:020000040000fa
:04024800740300003b
:020000040000fa
:04024c007403000037
:020000040000fa
:040250007403000033
:020000040000fa
:04025400740300002f
:020000040000fa
:04025800740300002b
:020000040000fa
:04025c007403000027
:020000040000fa
:040260007403000023
:020000040000fa
:04026400740300001f
:020000040000fa
:04026800740300001b
:020000040000fa
:04026c007403000017
:020000040000fa
:040270007403000013
:020000040000fa
:04027400740300000f
:020000040000fa
:04027800140300006b
:020000040000fa
:04027c007403000007
:020000040000fa
:040280007403000003
:020000040000fa
:0402840074030000ff
:020000040000fa
:0402880074030000fb
:020000040000fa
:04028c0074030000f7
:020000040000fa
:0402900074030000f3
:020000040000fa
:0402940074030000ef
:020000040000fa
:0402980074030000eb
:020000040000fa
:04029c004403000017
:020000040000fa
:0402a00074030000e3
:020000040000fa
:0402a40074030000df
:020000040000fa
:0402a80074030000db
:020000040000fa
:0402ac0074030000d7
:020000040000fa
:0402b00074030000d3
:020000040000fa
:0402b40074030000cf
:020000040000fa
:0402b80074030000cb
:020000040000fa
:0402bc0074030000c7
:020000040000fa
:0402c00074030000c3
:020000040000fa
:0402c40074030000bf
:020000040000fa
:0402c80074030000bb
:020000040000fa
:0402cc0074030000b7
:020000040000fa
:0402d00074030000b3
:020000040000fa
:0402d40074030000af
:020000040000fa
:0402d80074030000ab
:020000040000fa
:0402dc0074030000a7
:020000040000fa
:0402e00074030000a3
:020000040000fa
:0402e400740300009f
:020000040000fa
:0402e800740300009b
:020000040000fa
:0402ec007403000097
:020000040000fa
:0402f0007403000093
:020000040000fa
:0402f400740300008f
:020000040000fa
:0402f800740300008b
:020000040000fa
:0402fc007403000087
:020000040000fa
:040300007403000082
:020000040000fa
:04030400740300007e
:020000040000fa
:04030800740300007a
:020000040000fa
:04030c007403000076
:020000040000fa
:040310007403000072
:020000040000fa
:04031400740300006e
:020000040000fa
:04031800740300006a
:020000040000fa
:04031c007403000066
:020000040000fa
:040320007403000062
:020000040000fa
:04032400740300005e
:020000040000fa
:04032800740300005a
:020000040000fa
:04032c007403000056
:020000040000fa
:040330007403000052
:020000040000fa
:04033400740300004e
:020000040000fa
:04033800740300004a
:020000040000fa
:04033c007403000046
:020000040000fa
:040340007403000042
:020000040000fa
:04034400740300003e
:020000040000fa
:04034800740300003a
:020000040000fa
:04034c007403000036
:020000040000fa
:040350007403000032
:020000040000fa
:100400002f8020000eff20000e0188000000000059
:10041000000020000000e000020032000001200087
:10042000200288000e000700604c20000100200020
:10043000810f700001003200220007000000200040
:100440000000e00002003200000002000000000096
:10045000ae040200000000000040da000000fe00d0
:100460004440a900600120000000e00003003200c9
:1004700000002000a00188004440a8000000060001
:10048000f03fb1000180b10006003500ee03090025
:1004900000000000403fb1000180b100fbff3d00c3
:1004a0001000b000203fb0000200350000800900bd
:1004b00000000000000006008a1f78008b1f7800f3
:1004c0000000060091018800800478000000eb0025
:1004d0001a003700e284440032a0b4009905ba0043
:1004e000e284440032a0b4009906ba00e2844400d9
:1004f00032a0b4000006eb00476fde00fd07b2003b
:10050000636ce10003003a00ebff07000000eb0022
:100510000a003700606ce10004003a00005deb0067
:100520008b05e900fdff3e00040037006168e10033
:10053000010032000086eb000b00070019c7ba006b
:100540001905ba000e04e00003003a000a00e000ba
:10055000e0ff3a0000000600fe07b2009e0188009e
:100560008a047800f5ff3700395dba008b05e90091
:100570000c003200295dba008b05e900080032004a
:100580000c00e00003003a00e284440032a0b40012
:10059000f5ff370019ddba008b05e900faff3a00d4
:1005a0008904e800e184440032a0b40000000600a1
:1005b000809fbe003400f80000002000a0018800e9
:1005c0000000fa00004080000000e80000408800c1
:1005d00001408000401f2000808f500001003a0041
:1005e000ca42a80001408000803e2000808f500059
:1005f00001003a00ca62a80001408000c05d2000ee
:10060000808f500003003a00ca42a900ca62a900c4
:100610000028ef008400a9000080fa003400f900ef
:100620004f00be00004006003600f800809fbe006c
:10063000829fbe00849fbe00869fbe003400f800eb
:1006400000002000a00188000000fa008139280085
:10065000803e20006900070060fd2a001100200094
:1006600087ff07008680a9000080fa003400f900a7
:100670004f03be004f02be004f01be004f00be0040
:100680003600f900004006003600f800809fbe00ea
:10069000829fbe00849fbe00869fbe003400f8008b
:1006a00000002000a00188000000fa00013a2800a4
:1006b000803e20005100070060fd2a00110020004c
:1006c0006fff070087a0a9000080fa003400f9003e
:1006d0004f03be004f02be004f01be004f00be00e0
:1006e0003600f900004006000040da000000fe007d
:1006f000020037000204e0000b00320081017800a4
:100700000002780030417800b14f5100f9ff32000b
:100710001000200014427800934f52000300310073
:100720000080eb00000006000000eb000000060067
:020000040000fa
:10073000666f0000727700006172000064000000c4
:1007400062610000636b000077610000726400006a
:0c07500000730000746f000070000000d7
:020000040000fa
:10075c000200fa00000f7800c982a900c9c2a900e2
:10076c00cb82a900cbc2a90020002000000e88007b
:10077c00c221ef0010732000200e88000001200021
:10078c00400e8800b0032000600e88001e00780028
:10079c00b00e8800c1e1a8000080fa00000006003d
:1007ac000200fa00000f7800c982a900c9c2a90092
:1007bc00cb82a900cbc2a90020002000000e88002b
:1007cc00c221ef0010732000200e880000022000d0
:1007dc00400e8800b0032000600e88001e007800d8
:1007ec00c00e8800c1e1a8000080fa0000000600dd
:1007fc000400fa00000f780011079800c982a900c4
:10080c00c9c2a900cb82a900cbc2a900200020003c
:10081c00000e8800c221ef0010732000200e88000b
:10082c00b0032000600e8800813928001e00900063
:10083c00acff07000000e00005003a0000012000ba
:10084c00400e88001e007800b00e8800170037009c
:10085c00013a28001e009000a2ff07000000e000f3
:10086c0005003a0000022000400e88001e007800af
:10087c00c00e88000d003700913a28001e00900031
:10088c0098ff07000000e00007003a00000320007a
:10089c00400e88001e007800b00e88001e00780004
:1008ac00c00e880001003700c821ef00c1e1a8008c
:1008bc000080fa00000006000000fa008200a90087
:1008cc009400a800200580007000b300200588006b
:1008dc000080fa00000006000000fa0001348000dd
:1008ec00f00f2e000080600000b0a00000348800e3
:1008fc008220a9009680a8007105800080ff2f003f
:10090c00008060000010a000700588000080fa00d4
:10091c00000006000000fa001134800000fe2f00d9
:10092c00008060009000b300103488008240a90061
:10093c0097a0a80091058000f0f82f0000806000bf
:10094c000040a000900588000080fa00000006001e
:10095c000000fa00d8ff0700dfff0700edff0700db
:10096c00c842a900c862a900c9a2a900c902a8006e
:10097c00c922a800c942a800cba2a800ffff3700db
:020000040000fa
:10098c000008000002000000000000000000000051
:020000040000fa
:0200000401f009
:04000000ffff0000fe
:020000040000fa
:0200000401f009
:04000800ffff0000f6
:020000040000fa
:0200000401f009
:04000c0000000000f0
:020000040000fa
:0200000401f009
:04001000a300000049
:020000040000fa
:0200000401f009
:04001400df00000009
:020000040000fa
:0200000401f009
:04001800f7000000ed
:020000040000fa
:0200000401f009
:04001c00deff000003
:00000001FF
