:020000040000fa
:080000000002040000000000f2
:020000040000fa
:04000800f4020000fe
:020000040000fa
:04000c00f4020000fa
:020000040000fa
:04001000f4020000f6
:020000040000fa
:04001400f4020000f2
:020000040000fa
:04001800f4020000ee
:020000040000fa
:04001c00f4020000ea
:020000040000fa
:04002000f4020000e6
:020000040000fa
:04002400f4020000e2
:020000040000fa
:04002800f4020000de
:020000040000fa
:04002c00f4020000da
:020000040000fa
:04003000f4020000d6
:020000040000fa
:04003400f4020000d2
:020000040000fa
:04003800f4020000ce
:020000040000fa
:04003c00f4020000ca
:020000040000fa
:04004000f4020000c6
:020000040000fa
:04004400f4020000c2
:020000040000fa
:04004800f4020000be
:020000040000fa
:04004c00f4020000ba
:020000040000fa
:04005000f4020000b6
:020000040000fa
:04005400f4020000b2
:020000040000fa
:04005800f4020000ae
:020000040000fa
:04005c00f4020000aa
:020000040000fa
:04006000f4020000a6
:020000040000fa
:04006400f4020000a2
:020000040000fa
:04006800f40200009e
:020000040000fa
:04006c00ec020000a2
:020000040000fa
:04007000f402000096
:020000040000fa
:04007400f402000092
:020000040000fa
:04007800bc020000c6
:020000040000fa
:04007c00f40200008a
:020000040000fa
:04008000f402000086
:020000040000fa
:04008400f402000082
:020000040000fa
:04008800f40200007e
:020000040000fa
:04008c00f40200007a
:020000040000fa
:04009000f402000076
:020000040000fa
:04009400f402000072
:020000040000fa
:04009800f40200006e
:020000040000fa
:04009c00d40200008a
:020000040000fa
:0400a000f402000066
:020000040000fa
:0400a400f402000062
:020000040000fa
:0400a800f40200005e
:020000040000fa
:0400ac00f40200005a
:020000040000fa
:0400b000f402000056
:020000040000fa
:0400b400f402000052
:020000040000fa
:0400b800f40200004e
:020000040000fa
:0400bc00f40200004a
:020000040000fa
:0400c000f402000046
:020000040000fa
:0400c400f402000042
:020000040000fa
:0400c800f40200003e
:020000040000fa
:0400cc00f40200003a
:020000040000fa
:0400d000f402000036
:020000040000fa
:0400d400f402000032
:020000040000fa
:0400d800f40200002e
:020000040000fa
:0400dc00f40200002a
:020000040000fa
:0400e000f402000026
:020000040000fa
:0400e400f402000022
:020000040000fa
:0400e800f40200001e
:020000040000fa
:0400ec00f40200001a
:020000040000fa
:0400f000f402000016
:020000040000fa
:0400f400f402000012
:020000040000fa
:0400f800f40200000e
:020000040000fa
:0400fc00f40200000a
:020000040000fa
:04010000f402000005
:020000040000fa
:04010400f402000001
:020000040000fa
:04010800f4020000fd
:020000040000fa
:04010c00f4020000f9
:020000040000fa
:04011000f4020000f5
:020000040000fa
:04011400f4020000f1
:020000040000fa
:04011800f4020000ed
:020000040000fa
:04011c00f4020000e9
:020000040000fa
:04012000f4020000e5
:020000040000fa
:04012400f4020000e1
:020000040000fa
:04012800f4020000dd
:020000040000fa
:04012c00f4020000d9
:020000040000fa
:04013000f4020000d5
:020000040000fa
:04013400f4020000d1
:020000040000fa
:04013800f4020000cd
:020000040000fa
:04013c00f4020000c9
:020000040000fa
:04014000f4020000c5
:020000040000fa
:04014400f4020000c1
:020000040000fa
:04014800f4020000bd
:020000040000fa
:04014c00f4020000b9
:020000040000fa
:04015000f4020000b5
:020000040000fa
:04020800f4020000fc
:020000040000fa
:04020c00f4020000f8
:020000040000fa
:04021000f4020000f4
:020000040000fa
:04021400f4020000f0
:020000040000fa
:04021800f4020000ec
:020000040000fa
:04021c00f4020000e8
:020000040000fa
:04022000f4020000e4
:020000040000fa
:04022400f4020000e0
:020000040000fa
:04022800f4020000dc
:020000040000fa
:04022c00f4020000d8
:020000040000fa
:04023000f4020000d4
:020000040000fa
:04023400f4020000d0
:020000040000fa
:04023800f4020000cc
:020000040000fa
:04023c00f4020000c8
:020000040000fa
:04024000f4020000c4
:020000040000fa
:04024400f4020000c0
:020000040000fa
:04024800f4020000bc
:020000040000fa
:04024c00f4020000b8
:020000040000fa
:04025000f4020000b4
:020000040000fa
:04025400f4020000b0
:020000040000fa
:04025800f4020000ac
:020000040000fa
:04025c00f4020000a8
:020000040000fa
:04026000f4020000a4
:020000040000fa
:04026400f4020000a0
:020000040000fa
:04026800f40200009c
:020000040000fa
:04026c00ec020000a0
:020000040000fa
:04027000f402000094
:020000040000fa
:04027400f402000090
:020000040000fa
:04027800bc020000c4
:020000040000fa
:04027c00f402000088
:020000040000fa
:04028000f402000084
:020000040000fa
:04028400f402000080
:020000040000fa
:04028800f40200007c
:020000040000fa
:04028c00f402000078
:020000040000fa
:04029000f402000074
:020000040000fa
:04029400f402000070
:020000040000fa
:04029800f40200006c
:020000040000fa
:04029c00d402000088
:020000040000fa
:0402a000f402000064
:020000040000fa
:0402a400f402000060
:020000040000fa
:0402a800f40200005c
:020000040000fa
:0402ac00f402000058
:020000040000fa
:0402b000f402000054
:020000040000fa
:0402b400f402000050
:020000040000fa
:0402b800f40200004c
:020000040000fa
:0402bc00f402000048
:020000040000fa
:0402c000f402000044
:020000040000fa
:0402c400f402000040
:020000040000fa
:0402c800f40200003c
:020000040000fa
:0402cc00f402000038
:020000040000fa
:0402d000f402000034
:020000040000fa
:0402d400f402000030
:020000040000fa
:0402d800f40200002c
:020000040000fa
:0402dc00f402000028
:020000040000fa
:0402e000f402000024
:020000040000fa
:0402e400f402000020
:020000040000fa
:0402e800f40200001c
:020000040000fa
:0402ec00f402000018
:020000040000fa
:0402f000f402000014
:020000040000fa
:0402f400f402000010
:020000040000fa
:0402f800f40200000c
:020000040000fa
:0402fc00f402000008
:020000040000fa
:04030000f402000003
:020000040000fa
:04030400f4020000ff
:020000040000fa
:04030800f4020000fb
:020000040000fa
:04030c00f4020000f7
:020000040000fa
:04031000f4020000f3
:020000040000fa
:04031400f4020000ef
:020000040000fa
:04031800f4020000eb
:020000040000fa
:04031c00f4020000e7
:020000040000fa
:04032000f4020000e3
:020000040000fa
:04032400f4020000df
:020000040000fa
:04032800f4020000db
:020000040000fa
:04032c00f4020000d7
:020000040000fa
:04033000f4020000d3
:020000040000fa
:04033400f4020000cf
:020000040000fa
:04033800f4020000cb
:020000040000fa
:04033c00f4020000c7
:020000040000fa
:04034000f4020000c3
:020000040000fa
:04034400f4020000bf
:020000040000fa
:04034800f4020000bb
:020000040000fa
:04034c00f4020000b7
:020000040000fa
:04035000f4020000b3
:020000040000fa
:100400002f8020000eff20000e0188000000000059
:10041000000020000000e000020032000001200087
:10042000200288000e000700804820000100200004
:10043000810f70000100320014000700000020004e
:100440000000e00002003200000002000000000096
:1004500068040200000000000040da000000fe0016
:100460004440a900000020000000e000030032002a
:1004700000002000a00188004440a8000000060001
:100480008a1f78008b1f7800000006009101880009
:10049000800478000000eb001a003700e28444007a
:1004a00032a0b4009905ba00e284440032a0b4003e
:1004b0009906ba00e284440032a0b4000006eb00c2
:1004c000476fde00fd07b200636ce10003003a00f5
:1004d000ebff07000000eb000a003700606ce10052
:1004e00004003a00005deb008b05e900fdff3e00d3
:1004f000040037006168e100010032000086eb0073
:100500000b00070019c7ba001905ba000e04e00075
:1005100003003a000a00e000e0ff3a000000060095
:10052000fe07b2009e0188008a047800f5ff3700bc
:10053000395dba008b05e9000c003200295dba0074
:100540008b05e900080032000c00e00003003a00cf
:10055000e284440032a0b400f5ff370019ddba0090
:100560008b05e900faff3a008904e800e1844400c1
:1005700032a0b40000000600801f78003400f800ac
:1005800000002000a00188000000fa0010002000f8
:10059000004088008680a9000080fa003400f9003d
:1005a0004f00780000400600801f78003400f800fb
:1005b00000002000a00188000000fa0020002000b8
:1005c0000040880087a0a9000080fa003400f900ec
:1005d0004f007800004006000000fa008620a900c5
:1005e0000080fa00004006000040da000000fe0033
:020000040000fa
:1005f0000000fa0070012000201088000000280090
:10060000301088009620a8000080fa000000060044
:100610000000fa0006a2a9000682a800000000005f
:1006200030108000700060000000e000fcff3a0025
:100630000080fa00000006000000fa0006a2a800f0
:100640000682a800000000003010800070006000ea
:100650000000e000fcff3a000080fa000000060005
:100660000000fa000662a9000642a800000000008f
:1006700030108000640060000000e000fcff3a00e1
:100680000080fa00000006000000fa0006a2a9009f
:100690000602a80000000000301080006100600029
:1006a0000000e000fcff3a000080fa0000000600b5
:1006b0000000fa000622a8000000000030108000b0
:1006c000620060000000e000fcff3a0006a2a90002
:1006d0000802a9000080fa00000006000000fa00ed
:1006e0000000000041108000000028000080600031
:1006f0000000e000fbff3a000080fa000000060066
:100700000000fa00000000004110800000002400fa
:10071000008060000000e000fbff3a000080fa006b
:10072000000006000200fa00004f78001e80fb0067
:100730001010880000000000401080006100600080
:100740000000e000fcff3a000080fa000000060014
:100750000000fa000662a8000000000040108000bf
:10076000620060000000e000fcff32000080fa0040
:10077000000006000400fa00004f780011479800be
:100780002247980033479800bfff07001e00fb0078
:100790000000400000407800e2ff0700d8ff07009b
:1007a0001e409000dfff0700d5ff07002e4090009d
:1007b000dcff0700d2ff07003e409000d9ff070092
:1007c000cfff0700a6ff07000080fa000000060028
:1007d0000600fa00204798003147980042479800e9
:1007e000a9ff07002e4090000000fb000000400021
:1007f00000407800cbff0700c1ff07003e4090009b
:10080000c8ff0700beff07004e409000c5ff07006d
:10081000bbff0700a6ff07002e4090000000fb0072
:1008200000004000004078000004a000bdff070069
:10083000b3ff0700c6ff07007fff070088ff070020
:1008400000108000004f78001e4078000080fa0001
:10085000000006000000fa0001348000f00f2e00b6
:10086000808060000050200001007000003488008b
:100870008220a9009680a8007105800080ff2f00cb
:10088000008060000000a000700588000080fa0071
:10089000000006000000fa001134800000fe2f0066
:1008a000008060005000b300103488008240a8002f
:1008b00097a0a80091058000f0f82f00008060004c
:1008c0000040a000900588000080fa0000000600ab
:1008d0000000fa00c8a2a800deff0700edff070035
:1008e00043ff0700010037000000000000408000c7
:1008f000e10f500001003a000028ef0000408000a6
:10090000e20f5000f8ff3a000028ef00f7ff370031
:020000040000fa
:1009100000080000020000000000000000000000cd
:020000040000fa
:0200000401f009
:04000000ffff0000fe
:020000040000fa
:0200000401f009
:04000800ffff0000f6
:020000040000fa
:0200000401f009
:04000c0000000000f0
:020000040000fa
:0200000401f009
:04001000a300000049
:020000040000fa
:0200000401f009
:04001400df00000009
:020000040000fa
:0200000401f009
:04001800f7000000ed
:020000040000fa
:0200000401f009
:04001c00deff000003
:00000001FF
