:020000040000fa
:080000000002040000000000f2
:020000040000fa
:04000800f8020000fa
:020000040000fa
:04000c00f8020000f6
:020000040000fa
:04001000f8020000f2
:020000040000fa
:04001400f8020000ee
:020000040000fa
:04001800f8020000ea
:020000040000fa
:04001c00f8020000e6
:020000040000fa
:04002000f8020000e2
:020000040000fa
:04002400f8020000de
:020000040000fa
:04002800f8020000da
:020000040000fa
:04002c00f8020000d6
:020000040000fa
:04003000f8020000d2
:020000040000fa
:04003400f8020000ce
:020000040000fa
:04003800f8020000ca
:020000040000fa
:04003c00f8020000c6
:020000040000fa
:04004000f8020000c2
:020000040000fa
:04004400f8020000be
:020000040000fa
:04004800f8020000ba
:020000040000fa
:04004c00f8020000b6
:020000040000fa
:04005000f8020000b2
:020000040000fa
:04005400f8020000ae
:020000040000fa
:04005800f8020000aa
:020000040000fa
:04005c00f8020000a6
:020000040000fa
:04006000f8020000a2
:020000040000fa
:04006400f80200009e
:020000040000fa
:04006800f80200009a
:020000040000fa
:04006c00f802000096
:020000040000fa
:04007000f802000092
:020000040000fa
:04007400f80200008e
:020000040000fa
:04007800d8020000aa
:020000040000fa
:04007c00f802000086
:020000040000fa
:04008000f802000082
:020000040000fa
:04008400f80200007e
:020000040000fa
:04008800f80200007a
:020000040000fa
:04008c00f802000076
:020000040000fa
:04009000f802000072
:020000040000fa
:04009400f80200006e
:020000040000fa
:04009800f80200006a
:020000040000fa
:04009c00e802000076
:020000040000fa
:0400a000f802000062
:020000040000fa
:0400a400f80200005e
:020000040000fa
:0400a800f80200005a
:020000040000fa
:0400ac00f802000056
:020000040000fa
:0400b000f802000052
:020000040000fa
:0400b400f80200004e
:020000040000fa
:0400b800f80200004a
:020000040000fa
:0400bc00f802000046
:020000040000fa
:0400c000f802000042
:020000040000fa
:0400c400f80200003e
:020000040000fa
:0400c800f80200003a
:020000040000fa
:0400cc00f802000036
:020000040000fa
:0400d000f802000032
:020000040000fa
:0400d400f80200002e
:020000040000fa
:0400d800f80200002a
:020000040000fa
:0400dc00f802000026
:020000040000fa
:0400e000f802000022
:020000040000fa
:0400e400f80200001e
:020000040000fa
:0400e800f80200001a
:020000040000fa
:0400ec00f802000016
:020000040000fa
:0400f000f802000012
:020000040000fa
:0400f400f80200000e
:020000040000fa
:0400f800f80200000a
:020000040000fa
:0400fc00f802000006
:020000040000fa
:04010000f802000001
:020000040000fa
:04010400f8020000fd
:020000040000fa
:04010800f8020000f9
:020000040000fa
:04010c00f8020000f5
:020000040000fa
:04011000f8020000f1
:020000040000fa
:04011400f8020000ed
:020000040000fa
:04011800f8020000e9
:020000040000fa
:04011c00f8020000e5
:020000040000fa
:04012000f8020000e1
:020000040000fa
:04012400f8020000dd
:020000040000fa
:04012800f8020000d9
:020000040000fa
:04012c00f8020000d5
:020000040000fa
:04013000f8020000d1
:020000040000fa
:04013400f8020000cd
:020000040000fa
:04013800f8020000c9
:020000040000fa
:04013c00f8020000c5
:020000040000fa
:04014000f8020000c1
:020000040000fa
:04014400f8020000bd
:020000040000fa
:04014800f8020000b9
:020000040000fa
:04014c00f8020000b5
:020000040000fa
:04015000f8020000b1
:020000040000fa
:04020800f8020000f8
:020000040000fa
:04020c00f8020000f4
:020000040000fa
:04021000f8020000f0
:020000040000fa
:04021400f8020000ec
:020000040000fa
:04021800f8020000e8
:020000040000fa
:04021c00f8020000e4
:020000040000fa
:04022000f8020000e0
:020000040000fa
:04022400f8020000dc
:020000040000fa
:04022800f8020000d8
:020000040000fa
:04022c00f8020000d4
:020000040000fa
:04023000f8020000d0
:020000040000fa
:04023400f8020000cc
:020000040000fa
:04023800f8020000c8
:020000040000fa
:04023c00f8020000c4
:020000040000fa
:04024000f8020000c0
:020000040000fa
:04024400f8020000bc
:020000040000fa
:04024800f8020000b8
:020000040000fa
:04024c00f8020000b4
:020000040000fa
:04025000f8020000b0
:020000040000fa
:04025400f8020000ac
:020000040000fa
:04025800f8020000a8
:020000040000fa
:04025c00f8020000a4
:020000040000fa
:04026000f8020000a0
:020000040000fa
:04026400f80200009c
:020000040000fa
:04026800f802000098
:020000040000fa
:04026c00f802000094
:020000040000fa
:04027000f802000090
:020000040000fa
:04027400f80200008c
:020000040000fa
:04027800d8020000a8
:020000040000fa
:04027c00f802000084
:020000040000fa
:04028000f802000080
:020000040000fa
:04028400f80200007c
:020000040000fa
:04028800f802000078
:020000040000fa
:04028c00f802000074
:020000040000fa
:04029000f802000070
:020000040000fa
:04029400f80200006c
:020000040000fa
:04029800f802000068
:020000040000fa
:04029c00e802000074
:020000040000fa
:0402a000f802000060
:020000040000fa
:0402a400f80200005c
:020000040000fa
:0402a800f802000058
:020000040000fa
:0402ac00f802000054
:020000040000fa
:0402b000f802000050
:020000040000fa
:0402b400f80200004c
:020000040000fa
:0402b800f802000048
:020000040000fa
:0402bc00f802000044
:020000040000fa
:0402c000f802000040
:020000040000fa
:0402c400f80200003c
:020000040000fa
:0402c800f802000038
:020000040000fa
:0402cc00f802000034
:020000040000fa
:0402d000f802000030
:020000040000fa
:0402d400f80200002c
:020000040000fa
:0402d800f802000028
:020000040000fa
:0402dc00f802000024
:020000040000fa
:0402e000f802000020
:020000040000fa
:0402e400f80200001c
:020000040000fa
:0402e800f802000018
:020000040000fa
:0402ec00f802000014
:020000040000fa
:0402f000f802000010
:020000040000fa
:0402f400f80200000c
:020000040000fa
:0402f800f802000008
:020000040000fa
:0402fc00f802000004
:020000040000fa
:04030000f8020000ff
:020000040000fa
:04030400f8020000fb
:020000040000fa
:04030800f8020000f7
:020000040000fa
:04030c00f8020000f3
:020000040000fa
:04031000f8020000ef
:020000040000fa
:04031400f8020000eb
:020000040000fa
:04031800f8020000e7
:020000040000fa
:04031c00f8020000e3
:020000040000fa
:04032000f8020000df
:020000040000fa
:04032400f8020000db
:020000040000fa
:04032800f8020000d7
:020000040000fa
:04032c00f8020000d3
:020000040000fa
:04033000f8020000cf
:020000040000fa
:04033400f8020000cb
:020000040000fa
:04033800f8020000c7
:020000040000fa
:04033c00f8020000c3
:020000040000fa
:04034000f8020000bf
:020000040000fa
:04034400f8020000bb
:020000040000fa
:04034800f8020000b7
:020000040000fa
:04034c00f8020000b3
:020000040000fa
:04035000f8020000af
:020000040000fa
:100400002f8020000eff20000e0188000000000059
:10041000000020000000e000020032000001200087
:10042000200288000e00070040612000010020002b
:10043000810f700001003200220007000000200040
:100440000000e00002003200000002000000000096
:10045000ee050200000000000040da000000fe008f
:100460004440a900000020000000e000030032002a
:1004700000002000a00188004440a8000000060001
:10048000f03fb1000180b10006003500ee03090025
:1004900000000000403fb1000180b100fbff3d00c3
:1004a0001000b000203fb0000200350000800900bd
:1004b00000000000000006008a1f78008b1f7800f3
:1004c0000000060091018800800478000000eb0025
:1004d0001a003700e284440032a0b4009905ba0043
:1004e000e284440032a0b4009906ba00e2844400d9
:1004f00032a0b4000006eb00476fde00fd07b2003b
:10050000636ce10003003a00ebff07000000eb0022
:100510000a003700606ce10004003a00005deb0067
:100520008b05e900fdff3e00040037006168e10033
:10053000010032000086eb000b00070019c7ba006b
:100540001905ba000e04e00003003a000a00e000ba
:10055000e0ff3a0000000600fe07b2009e0188009e
:100560008a047800f5ff3700395dba008b05e90091
:100570000c003200295dba008b05e900080032004a
:100580000c00e00003003a00e284440032a0b40012
:10059000f5ff370019ddba008b05e900faff3a00d4
:1005a0008904e800e184440032a0b40000000600a1
:1005b000801f78000000fa00100020000040880032
:1005c0008680a9000080fa004f00780000400600f5
:1005d000801f78000000fa00200020000040880002
:1005e00087a0a9000080fa004f00780000400600b4
:1005f0000040da000000fe00889fbe008a9fbe0017
:1006000030044200b0844a0030054b0090854b0016
:100610006000b1000898be000a90be00c10007004b
:1006200002003100680040001008e8004f05be00dd
:100630004f04be0000000600889fbe008a9fbe00d7
:100640003004be002005be000418540005985c006c
:1006500006185d0007985d0011002000b10007003a
:10066000010039008000eb00108810004f05be002b
:100670004f04be00000006001200fa00889fbe0072
:100680008a9fbe008c9fbe00e0b79f00f1b79f001d
:1006900082bf9f0093bf9f000605be000404be00fa
:1006a0000000eb00d0b79f00c0b79f00b0b79f001d
:1006b000a0b79f0090b79f00000678005fb1970039
:1006c000cfb09700820141003fb097000200e000e8
:1006d00004003d00980007007e805700c6ff070019
:1006e00003003700940007007e805700d2ff070008
:1006f000dfb697000d00e0000c0035006fb29700e8
:10070000ffb297000fbb97009fbb9700100020001f
:10071000010020006011b8000002720081827200a6
:100720000203730083837300580007000c06e8007f
:1007300001042000810f5600e0ff3a000d00e000a8
:1007400004003d000802be000a03be007e80570080
:10075000a9ff07005fa897000000e00005003a002d
:100760001fb29700afb297003fb39700cfb3970087
:10077000460007006fb09700ffb097000fb99700d1
:100780009fb997004f06be004f05be004f04be0044
:100790000080fa0000000600881f78001800200082
:1007a000881f7800b4ff07008f87e9004f047800a6
:1007b00000000600801feb00afff07008f87e900f5
:1007c00000000600889fbe008a9fbe003d00070013
:1007d00007003d004000070018002000450007000a
:1007e00008003d002b0007000004eb000500370067
:1007f0000004eb003f00070002003d002500070059
:1008000018002000e4ff07000800e00001003200ab
:100810003d0007004f05be004f04be00000006006b
:10082000889fbe008a9fbe008c1f780025000700ad
:1008300008003d00280007001c0020000820e100ff
:1008400009a8e1000ab0e1000bb8e10007003d0093
:10085000050037000006eb002600070003003d00fe
:100860006044b8006055b8000c000700d1ff0700d5
:100870000c00e00001003200230007004f06780062
:100880004f05be004f04be00000006000800070030
:10089000000006006044b8006055b800040254002f
:1008a00085825c0006035d0087835d000000060012
:1008b000a4b79f00b5b79f00c6b79f00d7b79f00ea
:1008c00000000600e00f5000e08f5800e00f5900d4
:1008d000e08f5900000006006044b8006055b80081
:1008e0000000540081805c0002015d0083815d0096
:1008f00000000600e00f5200e08f5a00e00f5b009e
:10090000e08f5b00000006006022b8006033b80092
:100910000000520081805a0002015b0083815b006d
:10092000000006000440e10005c8e10006d0e10037
:1009300007d8e100000006004f09de008281710047
:10094000b3b79f004f01de008180400082807000bd
:10095000a1b79f008fb097004f09de000000400054
:100960000200700090b79f007fa897004f01de0043
:10097000818040008280700081b79f000d000700d9
:100980004f3ade000000400004007000f0af9f000e
:10099000080007000402420085824a0006034b005b
:1009a00087834b00c2ff07000802be000a03be0097
:1009b000000006002fb29700bfb297004fb3970018
:0809c000dfb397000000060000
:020000040000fa
:1009c8000400fa00008fbe001e00be006011b800cf
:1009d8000203be000002be000051270001072000ec
:1009e8006011b80075ff0700000078000080e9007a
:1009f8002010880007e2a9000722a8000742a900e2
:100a08000782a80007e2a8009620a9008620a9006e
:100a18000080fa00000006000000fa0006a2a90003
:100a28000682a800000000003010800070006000fe
:100a38000000e000fcff3a000080fa000000060019
:100a48000000fa0006a2a8000682a8000000000024
:100a580030108000700060000000e000fcff3a00e9
:100a68000080fa00000006000000fa000000000004
:100a78004110800000002800008060000000e000b5
:100a8800fbff3a000080fa00000006000000fa00b0
:100a98000000000041108000000024000080600079
:100aa8000000e000fbff3a000080fa0000000600aa
:100ab8000000fa0006a2a9000602a8000000000033
:100ac80030108000610060000000e000fcff3a0088
:100ad8000080fa00000006000000fa000622a800c4
:100ae8000000000030108000620060000000e0009c
:100af800fcff3a0006a2a9000802a9000080fa003b
:100b0800000006000000fa000662a9000642a800dc
:100b18000000000030108000640060000000e00069
:100b2800fcff3a000080fa00000006000200fa000c
:100b3800004f78001e80fb001010880000000000a5
:100b480040108000610060000000e000fcff3a00f7
:100b58000080fa00000006000000fa00013480005e
:100b6800f00f2e008080600000502000010070000f
:100b7800003488008220a9009680a80071058000b2
:100b880080ff2f00008060000000a0007005880032
:100b98000080fa00000006000000fa00113480000e
:100ba80000fe2f00008060005000b3001034880061
:100bb8008240a80097a0a80091058000f0f82f00b7
:100bc800008060000040a000900588000080fa00c6
:100bd800000006000000fa00c8a2a800deff070017
:100be800edff0700006a28001100200074ff0700cd
:100bf800afff070080c2b300ccff0700a3ff0700c8
:100c080080c2b300c9ff0700a0ff0700bdff0700af
:100c180040d42100c101200017fe0700f4ff37006f
:020000040000fa
:100c280000080000020000000000000000000000b2
:020000040000fa
:0200000401f009
:04000000ffff0000fe
:020000040000fa
:0200000401f009
:04000800ffff0000f6
:020000040000fa
:0200000401f009
:04000c0000000000f0
:020000040000fa
:0200000401f009
:04001000a300000049
:020000040000fa
:0200000401f009
:04001400df00000009
:020000040000fa
:0200000401f009
:04001800f7000000ed
:020000040000fa
:0200000401f009
:04001c00deff000003
:00000001FF
